{
  "contractName": "Marketplace",
  "abi": [
    {
      "inputs": [],
      "payable": false,
      "stateMutability": "nonpayable",
      "type": "constructor"
    },
    {
      "anonymous": false,
      "inputs": [
        {
          "indexed": false,
          "internalType": "uint256",
          "name": "caseId",
          "type": "uint256"
        },
        {
          "indexed": false,
          "internalType": "enum Marketplace.CaseType",
          "name": "caseType",
          "type": "uint8"
        },
        {
          "indexed": false,
          "internalType": "string",
          "name": "caseTitle",
          "type": "string"
        },
        {
          "indexed": false,
          "internalType": "string",
          "name": "caseDescribtion",
          "type": "string"
        },
        {
          "indexed": false,
          "internalType": "string",
          "name": "caseLocation",
          "type": "string"
        },
        {
          "indexed": false,
          "internalType": "uint256",
          "name": "casePrice",
          "type": "uint256"
        },
        {
          "indexed": false,
          "internalType": "string",
          "name": "caseDocs",
          "type": "string"
        },
        {
          "indexed": false,
          "internalType": "string",
          "name": "caseDecKey",
          "type": "string"
        },
        {
          "indexed": false,
          "internalType": "address payable",
          "name": "owner",
          "type": "address"
        },
        {
          "indexed": false,
          "internalType": "bool",
          "name": "isPurchased",
          "type": "bool"
        }
      ],
      "name": "CaseCreated",
      "type": "event"
    },
    {
      "anonymous": false,
      "inputs": [
        {
          "indexed": false,
          "internalType": "uint256",
          "name": "caseId",
          "type": "uint256"
        },
        {
          "indexed": false,
          "internalType": "enum Marketplace.CaseType",
          "name": "caseType",
          "type": "uint8"
        },
        {
          "indexed": false,
          "internalType": "string",
          "name": "caseTitle",
          "type": "string"
        },
        {
          "indexed": false,
          "internalType": "string",
          "name": "caseDescribtion",
          "type": "string"
        },
        {
          "indexed": false,
          "internalType": "string",
          "name": "caseLocation",
          "type": "string"
        },
        {
          "indexed": false,
          "internalType": "uint256",
          "name": "casePrice",
          "type": "uint256"
        },
        {
          "indexed": false,
          "internalType": "string",
          "name": "caseDocs",
          "type": "string"
        },
        {
          "indexed": false,
          "internalType": "string",
          "name": "caseDecKey",
          "type": "string"
        },
        {
          "indexed": false,
          "internalType": "address payable",
          "name": "owner",
          "type": "address"
        },
        {
          "indexed": false,
          "internalType": "bool",
          "name": "isPurchased",
          "type": "bool"
        }
      ],
      "name": "CasePurchased",
      "type": "event"
    },
    {
      "constant": true,
      "inputs": [],
      "name": "caseCount",
      "outputs": [
        {
          "internalType": "uint256",
          "name": "",
          "type": "uint256"
        }
      ],
      "payable": false,
      "stateMutability": "view",
      "type": "function"
    },
    {
      "constant": true,
      "inputs": [
        {
          "internalType": "uint256",
          "name": "",
          "type": "uint256"
        }
      ],
      "name": "cases",
      "outputs": [
        {
          "internalType": "uint256",
          "name": "caseId",
          "type": "uint256"
        },
        {
          "internalType": "enum Marketplace.CaseType",
          "name": "caseType",
          "type": "uint8"
        },
        {
          "internalType": "string",
          "name": "caseTitle",
          "type": "string"
        },
        {
          "internalType": "string",
          "name": "caseDescribtion",
          "type": "string"
        },
        {
          "internalType": "string",
          "name": "caseLocation",
          "type": "string"
        },
        {
          "internalType": "uint256",
          "name": "casePrice",
          "type": "uint256"
        },
        {
          "internalType": "string",
          "name": "caseDocs",
          "type": "string"
        },
        {
          "internalType": "string",
          "name": "caseDecKey",
          "type": "string"
        },
        {
          "internalType": "address payable",
          "name": "owner",
          "type": "address"
        },
        {
          "internalType": "bool",
          "name": "isPurchased",
          "type": "bool"
        }
      ],
      "payable": false,
      "stateMutability": "view",
      "type": "function"
    },
    {
      "constant": true,
      "inputs": [],
      "name": "contractName",
      "outputs": [
        {
          "internalType": "string",
          "name": "",
          "type": "string"
        }
      ],
      "payable": false,
      "stateMutability": "view",
      "type": "function"
    },
    {
      "constant": false,
      "inputs": [
        {
          "internalType": "enum Marketplace.CaseType",
          "name": "_caseType",
          "type": "uint8"
        },
        {
          "internalType": "string",
          "name": "_caseTitle",
          "type": "string"
        },
        {
          "internalType": "string",
          "name": "_caseDescribtion",
          "type": "string"
        },
        {
          "internalType": "string",
          "name": "_caseLocation",
          "type": "string"
        },
        {
          "internalType": "uint256",
          "name": "_casePrice",
          "type": "uint256"
        },
        {
          "internalType": "string",
          "name": "_caseDocs",
          "type": "string"
        },
        {
          "internalType": "string",
          "name": "_caseDecKey",
          "type": "string"
        }
      ],
      "name": "createCase",
      "outputs": [],
      "payable": false,
      "stateMutability": "nonpayable",
      "type": "function"
    },
    {
      "constant": false,
      "inputs": [
        {
          "internalType": "uint256",
          "name": "_caseId",
          "type": "uint256"
        }
      ],
      "name": "purchaseCase",
      "outputs": [],
      "payable": true,
      "stateMutability": "payable",
      "type": "function"
    },
    {
      "constant": true,
      "inputs": [
        {
          "internalType": "uint256",
          "name": "_caseId",
          "type": "uint256"
        }
      ],
      "name": "getCaseDocs",
      "outputs": [
        {
          "internalType": "string",
          "name": "",
          "type": "string"
        }
      ],
      "payable": false,
      "stateMutability": "view",
      "type": "function"
    },
    {
      "constant": true,
      "inputs": [
        {
          "internalType": "uint256",
          "name": "_caseId",
          "type": "uint256"
        }
      ],
      "name": "getCaseDecKey",
      "outputs": [
        {
          "internalType": "string",
          "name": "",
          "type": "string"
        }
      ],
      "payable": false,
      "stateMutability": "view",
      "type": "function"
    }
  ],
  "bytecode": "0x608060405260006001553480156200001657600080fd5b506040518060400160405280600f81526020017f57686973746c6564204d61726b6574000000000000000000000000000000000081525060009080519060200190620000649291906200006b565b506200011a565b828054600181600116156101000203166002900490600052602060002090601f016020900481019282601f10620000ae57805160ff1916838001178555620000df565b82800160010185558215620000df579182015b82811115620000de578251825591602001919060010190620000c1565b5b509050620000ee9190620000f2565b5090565b6200011791905b8082111562000113576000816000905550600101620000f9565b5090565b90565b6120e6806200012a6000396000f3fe6080604052600436106100705760003560e01c8063baa39ee51161004e578063baa39ee5146104f4578063da2d7e95146105a8578063dbe07bb9146105d3578063f09790dd1461060157610070565b806375d0c0dc146100755780638cfde9e214610105578063a2cc4df2146101b9575b600080fd5b34801561008157600080fd5b5061008a6108c6565b6040518080602001828103825283818151815260200191508051906020019080838360005b838110156100ca5780820151818401526020810190506100af565b50505050905090810190601f1680156100f75780820380516001836020036101000a031916815260200191505b509250505060405180910390f35b34801561011157600080fd5b5061013e6004803603602081101561012857600080fd5b8101908080359060200190929190505050610964565b6040518080602001828103825283818151815260200191508051906020019080838360005b8381101561017e578082015181840152602081019050610163565b50505050905090810190601f1680156101ab5780820380516001836020036101000a031916815260200191505b509250505060405180910390f35b3480156101c557600080fd5b506104f2600480360360e08110156101dc57600080fd5b81019080803560ff1690602001909291908035906020019064010000000081111561020657600080fd5b82018360208201111561021857600080fd5b8035906020019184600183028401116401000000008311171561023a57600080fd5b91908080601f016020809104026020016040519081016040528093929190818152602001838380828437600081840152601f19601f8201169050808301925050505050505091929192908035906020019064010000000081111561029d57600080fd5b8201836020820111156102af57600080fd5b803590602001918460018302840111640100000000831117156102d157600080fd5b91908080601f016020809104026020016040519081016040528093929190818152602001838380828437600081840152601f19601f8201169050808301925050505050505091929192908035906020019064010000000081111561033457600080fd5b82018360208201111561034657600080fd5b8035906020019184600183028401116401000000008311171561036857600080fd5b91908080601f016020809104026020016040519081016040528093929190818152602001838380828437600081840152601f19601f82011690508083019250505050505050919291929080359060200190929190803590602001906401000000008111156103d557600080fd5b8201836020820111156103e757600080fd5b8035906020019184600183028401116401000000008311171561040957600080fd5b91908080601f016020809104026020016040519081016040528093929190818152602001838380828437600081840152601f19601f8201169050808301925050505050505091929192908035906020019064010000000081111561046c57600080fd5b82018360208201111561047e57600080fd5b803590602001918460018302840111640100000000831117156104a057600080fd5b91908080601f016020809104026020016040519081016040528093929190818152602001838380828437600081840152601f19601f820116905080830192505050505050509192919290505050610af0565b005b34801561050057600080fd5b5061052d6004803603602081101561051757600080fd5b8101908080359060200190929190505050611004565b6040518080602001828103825283818151815260200191508051906020019080838360005b8381101561056d578082015181840152602081019050610552565b50505050905090810190601f16801561059a5780820380516001836020036101000a031916815260200191505b509250505060405180910390f35b3480156105b457600080fd5b506105bd611190565b6040518082815260200191505060405180910390f35b6105ff600480360360208110156105e957600080fd5b8101908080359060200190929190505050611196565b005b34801561060d57600080fd5b5061063a6004803603602081101561062457600080fd5b8101908080359060200190929190505050611c10565b604051808b81526020018a600281111561065057fe5b60ff16815260200180602001806020018060200189815260200180602001806020018873ffffffffffffffffffffffffffffffffffffffff1673ffffffffffffffffffffffffffffffffffffffff1681526020018715151515815260200186810386528e818151815260200191508051906020019080838360005b838110156106e65780820151818401526020810190506106cb565b50505050905090810190601f1680156107135780820380516001836020036101000a031916815260200191505b5086810385528d818151815260200191508051906020019080838360005b8381101561074c578082015181840152602081019050610731565b50505050905090810190601f1680156107795780820380516001836020036101000a031916815260200191505b5086810384528c818151815260200191508051906020019080838360005b838110156107b2578082015181840152602081019050610797565b50505050905090810190601f1680156107df5780820380516001836020036101000a031916815260200191505b5086810383528a818151815260200191508051906020019080838360005b838110156108185780820151818401526020810190506107fd565b50505050905090810190601f1680156108455780820380516001836020036101000a031916815260200191505b50868103825289818151815260200191508051906020019080838360005b8381101561087e578082015181840152602081019050610863565b50505050905090810190601f1680156108ab5780820380516001836020036101000a031916815260200191505b509f5050505050505050505050505050505060405180910390f35b60008054600181600116156101000203166002900480601f01602080910402602001604051908101604052809291908181526020018280546001816001161561010002031660029004801561095c5780601f106109315761010080835404028352916020019161095c565b820191906000526020600020905b81548152906001019060200180831161093f57829003601f168201915b505050505081565b60603373ffffffffffffffffffffffffffffffffffffffff166002600084815260200190815260200160002060080160009054906101000a900473ffffffffffffffffffffffffffffffffffffffff1673ffffffffffffffffffffffffffffffffffffffff161480156109f757506002600083815260200190815260200160002060080160149054906101000a900460ff165b15610ab257600260008381526020019081526020016000206006018054600181600116156101000203166002900480601f016020809104026020016040519081016040528092919081815260200182805460018160011615610100020316600290048015610aa65780601f10610a7b57610100808354040283529160200191610aa6565b820191906000526020600020905b815481529060010190602001808311610a8957829003601f168201915b50505050509050610aeb565b6040518060400160405280601781526020017f596f7520646f6e2774206f776e2074686973206361736500000000000000000081525090505b919050565b6000865111610b67576040517f08c379a00000000000000000000000000000000000000000000000000000000081526004018080602001828103825260188152602001807f43617365205469746c65206973206e6f742076616c696421000000000000000081525060200191505060405180910390fd5b60008311610bdd576040517f08c379a00000000000000000000000000000000000000000000000000000000081526004018080602001828103825260188152602001807f43617365207072696365206973206e6f742076616c696421000000000000000081525060200191505060405180910390fd5b6001600081548092919060010191905055506040518061014001604052806001548152602001886002811115610c0f57fe5b81526020018781526020018681526020018581526020018481526020018381526020018281526020013373ffffffffffffffffffffffffffffffffffffffff168152602001600015158152506002600060015481526020019081526020016000206000820151816000015560208201518160010160006101000a81548160ff02191690836002811115610c9e57fe5b02179055506040820151816002019080519060200190610cbf929190611f96565b506060820151816003019080519060200190610cdc929190611f96565b506080820151816004019080519060200190610cf9929190611f96565b5060a0820151816005015560c0820151816006019080519060200190610d20929190611f96565b5060e0820151816007019080519060200190610d3d929190611f96565b506101008201518160080160006101000a81548173ffffffffffffffffffffffffffffffffffffffff021916908373ffffffffffffffffffffffffffffffffffffffff1602179055506101208201518160080160146101000a81548160ff0219169083151502179055509050507f93e122aeac6122f94a179fbf4bed1856ca880248cdf36756ca4b95246fd71018600154888888888833600060405180898152602001886002811115610dec57fe5b60ff16815260200180602001806020018060200187815260200180602001806020018873ffffffffffffffffffffffffffffffffffffffff1673ffffffffffffffffffffffffffffffffffffffff1681526020018715151515815260200186810386528c818151815260200191508051906020019080838360005b83811015610e82578082015181840152602081019050610e67565b50505050905090810190601f168015610eaf5780820380516001836020036101000a031916815260200191505b5086810385528b818151815260200191508051906020019080838360005b83811015610ee8578082015181840152602081019050610ecd565b50505050905090810190601f168015610f155780820380516001836020036101000a031916815260200191505b5086810384528a818151815260200191508051906020019080838360005b83811015610f4e578082015181840152602081019050610f33565b50505050905090810190601f168015610f7b5780820380516001836020036101000a031916815260200191505b50868103835260178152602001807f4c696e6b204c6f636174696f6e2069732068696464656e0000000000000000008152506020018681038252601d8152602001807f436173652044656372797074696f6e204b65792069732068696464656e0000008152506020019d505050505050505050505050505060405180910390a150505050505050565b60603373ffffffffffffffffffffffffffffffffffffffff166002600084815260200190815260200160002060080160009054906101000a900473ffffffffffffffffffffffffffffffffffffffff1673ffffffffffffffffffffffffffffffffffffffff1614801561109757506002600083815260200190815260200160002060080160149054906101000a900460ff165b1561115257600260008381526020019081526020016000206007018054600181600116156101000203166002900480601f0160208091040260200160405190810160405280929190818152602001828054600181600116156101000203166002900480156111465780601f1061111b57610100808354040283529160200191611146565b820191906000526020600020905b81548152906001019060200180831161112957829003601f168201915b5050505050905061118b565b6040518060400160405280601781526020017f596f7520646f6e2774206f776e2074686973206361736500000000000000000081525090505b919050565b60015481565b61119e612016565b6002600083815260200190815260200160002060405180610140016040529081600082015481526020016001820160009054906101000a900460ff1660028111156111e557fe5b60028111156111f057fe5b8152602001600282018054600181600116156101000203166002900480601f01602080910402602001604051908101604052809291908181526020018280546001816001161561010002031660029004801561128d5780601f106112625761010080835404028352916020019161128d565b820191906000526020600020905b81548152906001019060200180831161127057829003601f168201915b50505050508152602001600382018054600181600116156101000203166002900480601f01602080910402602001604051908101604052809291908181526020018280546001816001161561010002031660029004801561132f5780601f106113045761010080835404028352916020019161132f565b820191906000526020600020905b81548152906001019060200180831161131257829003601f168201915b50505050508152602001600482018054600181600116156101000203166002900480601f0160208091040260200160405190810160405280929190818152602001828054600181600116156101000203166002900480156113d15780601f106113a6576101008083540402835291602001916113d1565b820191906000526020600020905b8154815290600101906020018083116113b457829003601f168201915b5050505050815260200160058201548152602001600682018054600181600116156101000203166002900480601f01602080910402602001604051908101604052809291908181526020018280546001816001161561010002031660029004801561147d5780601f106114525761010080835404028352916020019161147d565b820191906000526020600020905b81548152906001019060200180831161146057829003601f168201915b50505050508152602001600782018054600181600116156101000203166002900480601f01602080910402602001604051908101604052809291908181526020018280546001816001161561010002031660029004801561151f5780601f106114f45761010080835404028352916020019161151f565b820191906000526020600020905b81548152906001019060200180831161150257829003601f168201915b505050505081526020016008820160009054906101000a900473ffffffffffffffffffffffffffffffffffffffff1673ffffffffffffffffffffffffffffffffffffffff1673ffffffffffffffffffffffffffffffffffffffff1681526020016008820160149054906101000a900460ff161515151581525050905060008161010001519050600082600001511180156115bf5750600154826000015111155b611631576040517f08c379a000000000000000000000000000000000000000000000000000000000815260040180806020018281038252600d8152602001807f77726f6e6720636173652069640000000000000000000000000000000000000081525060200191505060405180910390fd5b8160a001513410156116ab576040517f08c379a00000000000000000000000000000000000000000000000000000000081526004018080602001828103825260108152602001807f6e6f7420656e6f7567682065746865720000000000000000000000000000000081525060200191505060405180910390fd5b81610120015115611724576040517f08c379a00000000000000000000000000000000000000000000000000000000081526004018080602001828103825260158152602001807f6361736520616c7265616479207075726368736564000000000000000000000081525060200191505060405180910390fd5b3373ffffffffffffffffffffffffffffffffffffffff168173ffffffffffffffffffffffffffffffffffffffff1614156117c6576040517f08c379a00000000000000000000000000000000000000000000000000000000081526004018080602001828103825260188152602001807f63616e27742062757920796f7572206f776e206361736573000000000000000081525060200191505060405180910390fd5b3382610100019073ffffffffffffffffffffffffffffffffffffffff16908173ffffffffffffffffffffffffffffffffffffffff168152505060018261012001901515908115158152505081600260008581526020019081526020016000206000820151816000015560208201518160010160006101000a81548160ff0219169083600281111561185357fe5b02179055506040820151816002019080519060200190611874929190611f96565b506060820151816003019080519060200190611891929190611f96565b5060808201518160040190805190602001906118ae929190611f96565b5060a0820151816005015560c08201518160060190805190602001906118d5929190611f96565b5060e08201518160070190805190602001906118f2929190611f96565b506101008201518160080160006101000a81548173ffffffffffffffffffffffffffffffffffffffff021916908373ffffffffffffffffffffffffffffffffffffffff1602179055506101208201518160080160146101000a81548160ff0219169083151502179055509050508073ffffffffffffffffffffffffffffffffffffffff166108fc349081150290604051600060405180830381858888f193505050501580156119a5573d6000803e3d6000fd5b507f3145438c15f6993ebfade3de0d16d89d499eb5b1dc65e742d47dbbfead7d262360015483602001518460400151856060015186608001518760a00151336001604051808981526020018860028111156119fc57fe5b60ff16815260200180602001806020018060200187815260200180602001806020018873ffffffffffffffffffffffffffffffffffffffff1673ffffffffffffffffffffffffffffffffffffffff1681526020018715151515815260200186810386528c818151815260200191508051906020019080838360005b83811015611a92578082015181840152602081019050611a77565b50505050905090810190601f168015611abf5780820380516001836020036101000a031916815260200191505b5086810385528b818151815260200191508051906020019080838360005b83811015611af8578082015181840152602081019050611add565b50505050905090810190601f168015611b255780820380516001836020036101000a031916815260200191505b5086810384528a818151815260200191508051906020019080838360005b83811015611b5e578082015181840152602081019050611b43565b50505050905090810190601f168015611b8b5780820380516001836020036101000a031916815260200191505b50868103835260178152602001807f6c696e6b204c6f636174696f6e2069732068696464656e0000000000000000008152506020018681038252601d8152602001807f436173652044656372797074696f6e204b65792069732068696464656e0000008152506020019d505050505050505050505050505060405180910390a1505050565b60026020528060005260406000206000915090508060000154908060010160009054906101000a900460ff1690806002018054600181600116156101000203166002900480601f016020809104026020016040519081016040528092919081815260200182805460018160011615610100020316600290048015611cd55780601f10611caa57610100808354040283529160200191611cd5565b820191906000526020600020905b815481529060010190602001808311611cb857829003601f168201915b505050505090806003018054600181600116156101000203166002900480601f016020809104026020016040519081016040528092919081815260200182805460018160011615610100020316600290048015611d735780601f10611d4857610100808354040283529160200191611d73565b820191906000526020600020905b815481529060010190602001808311611d5657829003601f168201915b505050505090806004018054600181600116156101000203166002900480601f016020809104026020016040519081016040528092919081815260200182805460018160011615610100020316600290048015611e115780601f10611de657610100808354040283529160200191611e11565b820191906000526020600020905b815481529060010190602001808311611df457829003601f168201915b505050505090806005015490806006018054600181600116156101000203166002900480601f016020809104026020016040519081016040528092919081815260200182805460018160011615610100020316600290048015611eb55780601f10611e8a57610100808354040283529160200191611eb5565b820191906000526020600020905b815481529060010190602001808311611e9857829003601f168201915b505050505090806007018054600181600116156101000203166002900480601f016020809104026020016040519081016040528092919081815260200182805460018160011615610100020316600290048015611f535780601f10611f2857610100808354040283529160200191611f53565b820191906000526020600020905b815481529060010190602001808311611f3657829003601f168201915b5050505050908060080160009054906101000a900473ffffffffffffffffffffffffffffffffffffffff16908060080160149054906101000a900460ff1690508a565b828054600181600116156101000203166002900490600052602060002090601f016020900481019282601f10611fd757805160ff1916838001178555612005565b82800160010185558215612005579182015b82811115612004578251825591602001919060010190611fe9565b5b509050612012919061208c565b5090565b604051806101400160405280600081526020016000600281111561203657fe5b8152602001606081526020016060815260200160608152602001600081526020016060815260200160608152602001600073ffffffffffffffffffffffffffffffffffffffff1681526020016000151581525090565b6120ae91905b808211156120aa576000816000905550600101612092565b5090565b9056fea265627a7a723158207c784e21947b0a9d846fd1c495bd3f923e6230cdffaa503b590b4c0e1beaff1f64736f6c63430005100032",
  "source": "pragma solidity >=0.4.21;\r\n\r\ncontract Marketplace {\r\n    //state var\r\n    string public contractName;\r\n\r\n    //use this not to point at empty mapping\r\n    uint256 public caseCount = 0;\r\n\r\n    //similar to linkedList\r\n    mapping(uint256 => Case) public cases;\r\n\r\n    //enum of case Types\r\n    enum CaseType {BRIBERY, MONEYLAUNDERY, OTHER}\r\n\r\n    constructor() public {\r\n        contractName = \"Whistled Market\";\r\n    }\r\n\r\n    struct Case {\r\n        uint256 caseId;\r\n        CaseType caseType; //change this to enum\r\n        string caseTitle;\r\n        string caseDescribtion;\r\n        string caseLocation;\r\n        uint256 casePrice;\r\n        string caseDocs; //link to IPFS\r\n        string caseDecKey; //case Decryption Key\r\n        address payable owner;\r\n        bool isPurchased;\r\n    }\r\n\r\n    event CaseCreated(\r\n        uint256 caseId,\r\n        CaseType caseType,\r\n        string caseTitle,\r\n        string caseDescribtion,\r\n        string caseLocation,\r\n        uint256 casePrice,\r\n        string caseDocs,\r\n        string caseDecKey,\r\n        address payable owner,\r\n        bool isPurchased\r\n    );\r\n\r\n    event CasePurchased(\r\n        uint256 caseId,\r\n        CaseType caseType,\r\n        string caseTitle,\r\n        string caseDescribtion,\r\n        string caseLocation,\r\n        uint256 casePrice,\r\n        string caseDocs,\r\n        string caseDecKey,\r\n        address payable owner,\r\n        bool isPurchased\r\n    );\r\n\r\n    function createCase(\r\n        CaseType _caseType,\r\n        string memory _caseTitle,\r\n        string memory _caseDescribtion,\r\n        string memory _caseLocation,\r\n        uint256 _casePrice,\r\n        string memory _caseDocs,\r\n        string memory _caseDecKey\r\n         ) public {\r\n        //requires valid name and price\r\n        require(bytes(_caseTitle).length > 0, \"Case Title is not valid!\");\r\n        require(_casePrice > 0, \"Case price is not valid!\");\r\n\r\n        caseCount++;\r\n\r\n        //create the case\r\n        cases[caseCount] = Case(caseCount,\r\n        _caseType,\r\n        _caseTitle,\r\n        _caseDescribtion,\r\n        _caseLocation,\r\n        _casePrice,\r\n        _caseDocs,\r\n        _caseDecKey,\r\n        msg.sender,\r\n        false);\r\n\r\n        //emit the event\r\n        emit CaseCreated(caseCount,\r\n        _caseType,\r\n        _caseTitle,\r\n        _caseDescribtion,\r\n        _caseLocation,\r\n        _casePrice,\r\n        \"Link Location is hidden\",\r\n        \"Case Decryption Key is hidden\",\r\n        msg.sender,\r\n        false);\r\n\r\n    }\r\n\r\n\r\n    function purchaseCase(uint256 _caseId)public payable{\r\n\r\n        //fetch the case\r\n        Case memory _case = cases[_caseId];\r\n\r\n        //fetch the owner\r\n        address payable _seller = _case.owner;\r\n\r\n        //ensure case has a valid id\r\n        require(_case.caseId>0 && _case.caseId<=caseCount, \"wrong case id\");\r\n\r\n         //require that it has enough Ether\r\n        require(msg.value>=_case.casePrice, \"not enough ether\");\r\n\r\n        //require that's not prudhced\r\n        require(!_case.isPurchased, \"case already purchsed\");\r\n\r\n        //require that buyer is not seller\r\n        require(_seller != msg.sender, \"can't buy your own cases\");\r\n\r\n        //now we ensured all, transfer ownership and mark as Purchased\r\n        _case.owner = msg.sender;\r\n        _case.isPurchased = true;\r\n\r\n        //update the list\r\n        cases[_caseId] = _case;\r\n\r\n        //pay the seller\r\n        _seller.transfer(msg.value);\r\n\r\n        //trigger purchase event\r\n        emit CasePurchased(caseCount,_case.caseType,_case.caseTitle,_case.caseDescribtion,\r\n        _case.caseLocation,_case.casePrice,\"link Location is hidden\", \"Case Decryption Key is hidden\",msg.sender,true);\r\n\r\n    }\r\n\r\n    function getCaseDocs(uint256 _caseId)public view returns (string memory){\r\n        if(cases[_caseId].owner == msg.sender && cases[_caseId].isPurchased)\r\n\r\n        return cases[_caseId].caseDocs;\r\n\r\n        else return \"You don't own this case\";\r\n\r\n    }\r\n\r\n    function getCaseDecKey(uint256 _caseId)public view returns (string memory){\r\n        if(cases[_caseId].owner == msg.sender && cases[_caseId].isPurchased)\r\n\r\n        return cases[_caseId].caseDecKey;\r\n\r\n        else return \"You don't own this case\";\r\n\r\n    }\r\n\r\n\r\n\r\n}\r\n",
  "sourcePath": "D:\\studies\\Blockchain\\whistled\\src\\contracts\\Marketplace.sol",
  "compiler": {
    "name": "solc",
    "version": "0.5.16+commit.9c3226ce.Emscripten.clang"
  },
  "schemaVersion": "3.0.23",
  "updatedAt": "2020-06-05T07:56:21.935Z",
  "networkType": "ethereum",
  "devdoc": {
    "methods": {}
  },
  "userdoc": {
    "methods": {}
  }
}