{
  "contractName": "Marketplace",
  "abi": [
    {
      "inputs": [],
      "payable": false,
      "stateMutability": "nonpayable",
      "type": "constructor"
    },
    {
      "anonymous": false,
      "inputs": [
        {
          "indexed": false,
          "internalType": "uint256",
          "name": "caseId",
          "type": "uint256"
        },
        {
          "indexed": false,
          "internalType": "enum Marketplace.CaseType",
          "name": "caseType",
          "type": "uint8"
        },
        {
          "indexed": false,
          "internalType": "string",
          "name": "caseTitle",
          "type": "string"
        },
        {
          "indexed": false,
          "internalType": "string",
          "name": "caseDescribtion",
          "type": "string"
        },
        {
          "indexed": false,
          "internalType": "string",
          "name": "caseLocation",
          "type": "string"
        },
        {
          "indexed": false,
          "internalType": "uint256",
          "name": "casePrice",
          "type": "uint256"
        },
        {
          "indexed": false,
          "internalType": "string",
          "name": "caseDocs",
          "type": "string"
        },
        {
          "indexed": false,
          "internalType": "address payable",
          "name": "owner",
          "type": "address"
        },
        {
          "indexed": false,
          "internalType": "bool",
          "name": "isPurchased",
          "type": "bool"
        }
      ],
      "name": "CaseCreated",
      "type": "event"
    },
    {
      "anonymous": false,
      "inputs": [
        {
          "indexed": false,
          "internalType": "uint256",
          "name": "caseId",
          "type": "uint256"
        },
        {
          "indexed": false,
          "internalType": "enum Marketplace.CaseType",
          "name": "caseType",
          "type": "uint8"
        },
        {
          "indexed": false,
          "internalType": "string",
          "name": "caseTitle",
          "type": "string"
        },
        {
          "indexed": false,
          "internalType": "string",
          "name": "caseDescribtion",
          "type": "string"
        },
        {
          "indexed": false,
          "internalType": "string",
          "name": "caseLocation",
          "type": "string"
        },
        {
          "indexed": false,
          "internalType": "uint256",
          "name": "casePrice",
          "type": "uint256"
        },
        {
          "indexed": false,
          "internalType": "string",
          "name": "caseDocs",
          "type": "string"
        },
        {
          "indexed": false,
          "internalType": "address payable",
          "name": "owner",
          "type": "address"
        },
        {
          "indexed": false,
          "internalType": "bool",
          "name": "isPurchased",
          "type": "bool"
        }
      ],
      "name": "CasePurchased",
      "type": "event"
    },
    {
      "constant": true,
      "inputs": [],
      "name": "caseCount",
      "outputs": [
        {
          "internalType": "uint256",
          "name": "",
          "type": "uint256"
        }
      ],
      "payable": false,
      "stateMutability": "view",
      "type": "function"
    },
    {
      "constant": true,
      "inputs": [
        {
          "internalType": "uint256",
          "name": "",
          "type": "uint256"
        }
      ],
      "name": "cases",
      "outputs": [
        {
          "internalType": "uint256",
          "name": "caseId",
          "type": "uint256"
        },
        {
          "internalType": "enum Marketplace.CaseType",
          "name": "caseType",
          "type": "uint8"
        },
        {
          "internalType": "string",
          "name": "caseTitle",
          "type": "string"
        },
        {
          "internalType": "string",
          "name": "caseDescribtion",
          "type": "string"
        },
        {
          "internalType": "string",
          "name": "caseLocation",
          "type": "string"
        },
        {
          "internalType": "uint256",
          "name": "casePrice",
          "type": "uint256"
        },
        {
          "internalType": "string",
          "name": "caseDocs",
          "type": "string"
        },
        {
          "internalType": "address payable",
          "name": "owner",
          "type": "address"
        },
        {
          "internalType": "bool",
          "name": "isPurchased",
          "type": "bool"
        }
      ],
      "payable": false,
      "stateMutability": "view",
      "type": "function"
    },
    {
      "constant": true,
      "inputs": [],
      "name": "contractName",
      "outputs": [
        {
          "internalType": "string",
          "name": "",
          "type": "string"
        }
      ],
      "payable": false,
      "stateMutability": "view",
      "type": "function"
    },
    {
      "constant": false,
      "inputs": [
        {
          "internalType": "enum Marketplace.CaseType",
          "name": "_caseType",
          "type": "uint8"
        },
        {
          "internalType": "string",
          "name": "_caseTitle",
          "type": "string"
        },
        {
          "internalType": "string",
          "name": "_caseDescribtion",
          "type": "string"
        },
        {
          "internalType": "string",
          "name": "_caseLocation",
          "type": "string"
        },
        {
          "internalType": "uint256",
          "name": "_casePrice",
          "type": "uint256"
        },
        {
          "internalType": "string",
          "name": "_caseDocs",
          "type": "string"
        }
      ],
      "name": "createCase",
      "outputs": [],
      "payable": false,
      "stateMutability": "nonpayable",
      "type": "function"
    },
    {
      "constant": false,
      "inputs": [
        {
          "internalType": "uint256",
          "name": "_caseId",
          "type": "uint256"
        }
      ],
      "name": "purchaseCase",
      "outputs": [],
      "payable": true,
      "stateMutability": "payable",
      "type": "function"
    },
    {
      "constant": true,
      "inputs": [
        {
          "internalType": "uint256",
          "name": "_caseId",
          "type": "uint256"
        }
      ],
      "name": "getCaseDocs",
      "outputs": [
        {
          "internalType": "string",
          "name": "",
          "type": "string"
        }
      ],
      "payable": false,
      "stateMutability": "view",
      "type": "function"
    }
  ],
  "bytecode": "0x608060405260006001553480156200001657600080fd5b506040518060400160405280600f81526020017f57686973746c6564204d61726b6574000000000000000000000000000000000081525060009080519060200190620000649291906200006b565b506200011a565b828054600181600116156101000203166002900490600052602060002090601f016020900481019282601f10620000ae57805160ff1916838001178555620000df565b82800160010185558215620000df579182015b82811115620000de578251825591602001919060010190620000c1565b5b509050620000ee9190620000f2565b5090565b6200011791905b8082111562000113576000816000905550600101620000f9565b5090565b90565b611b8a806200012a6000396000f3fe6080604052600436106100555760003560e01c806375d0c0dc1461005a5780638cfde9e2146100ea578063bbdead901461019e578063da2d7e9514610442578063dbe07bb91461046d578063f09790dd1461049b575b600080fd5b34801561006657600080fd5b5061006f6106f4565b6040518080602001828103825283818151815260200191508051906020019080838360005b838110156100af578082015181840152602081019050610094565b50505050905090810190601f1680156100dc5780820380516001836020036101000a031916815260200191505b509250505060405180910390f35b3480156100f657600080fd5b506101236004803603602081101561010d57600080fd5b8101908080359060200190929190505050610792565b6040518080602001828103825283818151815260200191508051906020019080838360005b83811015610163578082015181840152602081019050610148565b50505050905090810190601f1680156101905780820380516001836020036101000a031916815260200191505b509250505060405180910390f35b3480156101aa57600080fd5b50610440600480360360c08110156101c157600080fd5b81019080803560ff169060200190929190803590602001906401000000008111156101eb57600080fd5b8201836020820111156101fd57600080fd5b8035906020019184600183028401116401000000008311171561021f57600080fd5b91908080601f016020809104026020016040519081016040528093929190818152602001838380828437600081840152601f19601f8201169050808301925050505050505091929192908035906020019064010000000081111561028257600080fd5b82018360208201111561029457600080fd5b803590602001918460018302840111640100000000831117156102b657600080fd5b91908080601f016020809104026020016040519081016040528093929190818152602001838380828437600081840152601f19601f8201169050808301925050505050505091929192908035906020019064010000000081111561031957600080fd5b82018360208201111561032b57600080fd5b8035906020019184600183028401116401000000008311171561034d57600080fd5b91908080601f016020809104026020016040519081016040528093929190818152602001838380828437600081840152601f19601f82011690508083019250505050505050919291929080359060200190929190803590602001906401000000008111156103ba57600080fd5b8201836020820111156103cc57600080fd5b803590602001918460018302840111640100000000831117156103ee57600080fd5b91908080601f016020809104026020016040519081016040528093929190818152602001838380828437600081840152601f19601f82011690508083019250505050505050919291929050505061091e565b005b34801561044e57600080fd5b50610457610dd4565b6040518082815260200191505060405180910390f35b6104996004803603602081101561048357600080fd5b8101908080359060200190929190505050610dda565b005b3480156104a757600080fd5b506104d4600480360360208110156104be57600080fd5b8101908080359060200190929190505050611759565b604051808a81526020018960028111156104ea57fe5b60ff168152602001806020018060200180602001888152602001806020018773ffffffffffffffffffffffffffffffffffffffff1673ffffffffffffffffffffffffffffffffffffffff1681526020018615151515815260200185810385528c818151815260200191508051906020019080838360005b8381101561057c578082015181840152602081019050610561565b50505050905090810190601f1680156105a95780820380516001836020036101000a031916815260200191505b5085810384528b818151815260200191508051906020019080838360005b838110156105e25780820151818401526020810190506105c7565b50505050905090810190601f16801561060f5780820380516001836020036101000a031916815260200191505b5085810383528a818151815260200191508051906020019080838360005b8381101561064857808201518184015260208101905061062d565b50505050905090810190601f1680156106755780820380516001836020036101000a031916815260200191505b50858103825288818151815260200191508051906020019080838360005b838110156106ae578082015181840152602081019050610693565b50505050905090810190601f1680156106db5780820380516001836020036101000a031916815260200191505b509d505050505050505050505050505060405180910390f35b60008054600181600116156101000203166002900480601f01602080910402602001604051908101604052809291908181526020018280546001816001161561010002031660029004801561078a5780601f1061075f5761010080835404028352916020019161078a565b820191906000526020600020905b81548152906001019060200180831161076d57829003601f168201915b505050505081565b60603373ffffffffffffffffffffffffffffffffffffffff166002600084815260200190815260200160002060070160009054906101000a900473ffffffffffffffffffffffffffffffffffffffff1673ffffffffffffffffffffffffffffffffffffffff1614801561082557506002600083815260200190815260200160002060070160149054906101000a900460ff165b156108e057600260008381526020019081526020016000206006018054600181600116156101000203166002900480601f0160208091040260200160405190810160405280929190818152602001828054600181600116156101000203166002900480156108d45780601f106108a9576101008083540402835291602001916108d4565b820191906000526020600020905b8154815290600101906020018083116108b757829003601f168201915b50505050509050610919565b6040518060400160405280601781526020017f596f7520646f6e2774206f776e2074686973206361736500000000000000000081525090505b919050565b6000855111610995576040517f08c379a00000000000000000000000000000000000000000000000000000000081526004018080602001828103825260188152602001807f43617365205469746c65206973206e6f742076616c696421000000000000000081525060200191505060405180910390fd5b60008211610a0b576040517f08c379a00000000000000000000000000000000000000000000000000000000081526004018080602001828103825260188152602001807f43617365207072696365206973206e6f742076616c696421000000000000000081525060200191505060405180910390fd5b6001600081548092919060010191905055506040518061012001604052806001548152602001876002811115610a3d57fe5b81526020018681526020018581526020018481526020018381526020018281526020013373ffffffffffffffffffffffffffffffffffffffff168152602001600015158152506002600060015481526020019081526020016000206000820151816000015560208201518160010160006101000a81548160ff02191690836002811115610ac657fe5b02179055506040820151816002019080519060200190610ae7929190611a41565b506060820151816003019080519060200190610b04929190611a41565b506080820151816004019080519060200190610b21929190611a41565b5060a0820151816005015560c0820151816006019080519060200190610b48929190611a41565b5060e08201518160070160006101000a81548173ffffffffffffffffffffffffffffffffffffffff021916908373ffffffffffffffffffffffffffffffffffffffff1602179055506101008201518160070160146101000a81548160ff0219169083151502179055509050507fd936b3e762b1512576cda3e4c015a059737f9370ba4037bd212c0299882f7635600154878787878733600060405180898152602001886002811115610bf657fe5b60ff168152602001806020018060200180602001878152602001806020018773ffffffffffffffffffffffffffffffffffffffff1673ffffffffffffffffffffffffffffffffffffffff1681526020018615151515815260200185810385528b818151815260200191508051906020019080838360005b83811015610c88578082015181840152602081019050610c6d565b50505050905090810190601f168015610cb55780820380516001836020036101000a031916815260200191505b5085810384528a818151815260200191508051906020019080838360005b83811015610cee578082015181840152602081019050610cd3565b50505050905090810190601f168015610d1b5780820380516001836020036101000a031916815260200191505b50858103835289818151815260200191508051906020019080838360005b83811015610d54578082015181840152602081019050610d39565b50505050905090810190601f168015610d815780820380516001836020036101000a031916815260200191505b50858103825260168152602001807f4c696e6b206c6f636174696f2069732068696464656e000000000000000000008152506020019c5050505050505050505050505060405180910390a1505050505050565b60015481565b610de2611ac1565b6002600083815260200190815260200160002060405180610120016040529081600082015481526020016001820160009054906101000a900460ff166002811115610e2957fe5b6002811115610e3457fe5b8152602001600282018054600181600116156101000203166002900480601f016020809104026020016040519081016040528092919081815260200182805460018160011615610100020316600290048015610ed15780601f10610ea657610100808354040283529160200191610ed1565b820191906000526020600020905b815481529060010190602001808311610eb457829003601f168201915b50505050508152602001600382018054600181600116156101000203166002900480601f016020809104026020016040519081016040528092919081815260200182805460018160011615610100020316600290048015610f735780601f10610f4857610100808354040283529160200191610f73565b820191906000526020600020905b815481529060010190602001808311610f5657829003601f168201915b50505050508152602001600482018054600181600116156101000203166002900480601f0160208091040260200160405190810160405280929190818152602001828054600181600116156101000203166002900480156110155780601f10610fea57610100808354040283529160200191611015565b820191906000526020600020905b815481529060010190602001808311610ff857829003601f168201915b5050505050815260200160058201548152602001600682018054600181600116156101000203166002900480601f0160208091040260200160405190810160405280929190818152602001828054600181600116156101000203166002900480156110c15780601f10611096576101008083540402835291602001916110c1565b820191906000526020600020905b8154815290600101906020018083116110a457829003601f168201915b505050505081526020016007820160009054906101000a900473ffffffffffffffffffffffffffffffffffffffff1673ffffffffffffffffffffffffffffffffffffffff1673ffffffffffffffffffffffffffffffffffffffff1681526020016007820160149054906101000a900460ff161515151581525050905060008160e001519050600082600001511180156111605750600154826000015111155b6111d2576040517f08c379a000000000000000000000000000000000000000000000000000000000815260040180806020018281038252600d8152602001807f77726f6e6720636173652069640000000000000000000000000000000000000081525060200191505060405180910390fd5b8160a0015134101561124c576040517f08c379a00000000000000000000000000000000000000000000000000000000081526004018080602001828103825260108152602001807f6e6f7420656e6f7567682065746865720000000000000000000000000000000081525060200191505060405180910390fd5b816101000151156112c5576040517f08c379a00000000000000000000000000000000000000000000000000000000081526004018080602001828103825260158152602001807f6361736520616c7265616479207075726368736564000000000000000000000081525060200191505060405180910390fd5b3373ffffffffffffffffffffffffffffffffffffffff168173ffffffffffffffffffffffffffffffffffffffff161415611367576040517f08c379a00000000000000000000000000000000000000000000000000000000081526004018080602001828103825260188152602001807f63616e27742062757920796f7572206f776e206361736573000000000000000081525060200191505060405180910390fd5b338260e0019073ffffffffffffffffffffffffffffffffffffffff16908173ffffffffffffffffffffffffffffffffffffffff168152505060018261010001901515908115158152505081600260008581526020019081526020016000206000820151816000015560208201518160010160006101000a81548160ff021916908360028111156113f357fe5b02179055506040820151816002019080519060200190611414929190611a41565b506060820151816003019080519060200190611431929190611a41565b50608082015181600401908051906020019061144e929190611a41565b5060a0820151816005015560c0820151816006019080519060200190611475929190611a41565b5060e08201518160070160006101000a81548173ffffffffffffffffffffffffffffffffffffffff021916908373ffffffffffffffffffffffffffffffffffffffff1602179055506101008201518160070160146101000a81548160ff0219169083151502179055509050508073ffffffffffffffffffffffffffffffffffffffff166108fc349081150290604051600060405180830381858888f19350505050158015611527573d6000803e3d6000fd5b507fd145535c4d5bd18a066437e7c69f77ff80ffce591db88a37e86225addc91383560015483602001518460400151856060015186608001518760a001513360016040518089815260200188600281111561157e57fe5b60ff168152602001806020018060200180602001878152602001806020018773ffffffffffffffffffffffffffffffffffffffff1673ffffffffffffffffffffffffffffffffffffffff1681526020018615151515815260200185810385528b818151815260200191508051906020019080838360005b838110156116105780820151818401526020810190506115f5565b50505050905090810190601f16801561163d5780820380516001836020036101000a031916815260200191505b5085810384528a818151815260200191508051906020019080838360005b8381101561167657808201518184015260208101905061165b565b50505050905090810190601f1680156116a35780820380516001836020036101000a031916815260200191505b50858103835289818151815260200191508051906020019080838360005b838110156116dc5780820151818401526020810190506116c1565b50505050905090810190601f1680156117095780820380516001836020036101000a031916815260200191505b50858103825260178152602001807f6c696e6b206c6f636174696f6e2069732068696464656e0000000000000000008152506020019c5050505050505050505050505060405180910390a1505050565b60026020528060005260406000206000915090508060000154908060010160009054906101000a900460ff1690806002018054600181600116156101000203166002900480601f01602080910402602001604051908101604052809291908181526020018280546001816001161561010002031660029004801561181e5780601f106117f35761010080835404028352916020019161181e565b820191906000526020600020905b81548152906001019060200180831161180157829003601f168201915b505050505090806003018054600181600116156101000203166002900480601f0160208091040260200160405190810160405280929190818152602001828054600181600116156101000203166002900480156118bc5780601f10611891576101008083540402835291602001916118bc565b820191906000526020600020905b81548152906001019060200180831161189f57829003601f168201915b505050505090806004018054600181600116156101000203166002900480601f01602080910402602001604051908101604052809291908181526020018280546001816001161561010002031660029004801561195a5780601f1061192f5761010080835404028352916020019161195a565b820191906000526020600020905b81548152906001019060200180831161193d57829003601f168201915b505050505090806005015490806006018054600181600116156101000203166002900480601f0160208091040260200160405190810160405280929190818152602001828054600181600116156101000203166002900480156119fe5780601f106119d3576101008083540402835291602001916119fe565b820191906000526020600020905b8154815290600101906020018083116119e157829003601f168201915b5050505050908060070160009054906101000a900473ffffffffffffffffffffffffffffffffffffffff16908060070160149054906101000a900460ff16905089565b828054600181600116156101000203166002900490600052602060002090601f016020900481019282601f10611a8257805160ff1916838001178555611ab0565b82800160010185558215611ab0579182015b82811115611aaf578251825591602001919060010190611a94565b5b509050611abd9190611b30565b5090565b6040518061012001604052806000815260200160006002811115611ae157fe5b81526020016060815260200160608152602001606081526020016000815260200160608152602001600073ffffffffffffffffffffffffffffffffffffffff1681526020016000151581525090565b611b5291905b80821115611b4e576000816000905550600101611b36565b5090565b9056fea265627a7a723158202d47809690322d71e2c465228b7d1344068967e1744a0e175803c7c6364e635064736f6c63430005100032",
  "source": "pragma solidity >=0.4.21;\r\n\r\ncontract Marketplace {\r\n    //state var\r\n    string public contractName;\r\n\r\n    //use this not to point at empty mapping\r\n    uint256 public caseCount = 0;\r\n\r\n    //similar to linkedList\r\n    mapping(uint256 => Case) public cases;\r\n\r\n    //enum of case Types\r\n    enum CaseType {BRIBERY, MONEYLAUNDERY, OTHER}\r\n\r\n    constructor() public {\r\n        contractName = \"Whistled Market\";\r\n    }\r\n\r\n    struct Case {\r\n        uint256 caseId;\r\n        CaseType caseType; //change this to enum\r\n        string caseTitle;\r\n        string caseDescribtion;\r\n        string caseLocation;\r\n        uint256 casePrice;\r\n        string caseDocs; //link to IPFS\r\n        address payable owner;\r\n        bool isPurchased;\r\n    }\r\n\r\n    event CaseCreated(\r\n        uint256 caseId,\r\n        CaseType caseType,\r\n        string caseTitle,\r\n        string caseDescribtion,\r\n        string caseLocation,\r\n        uint256 casePrice,\r\n        string caseDocs,\r\n        address payable owner,\r\n        bool isPurchased\r\n    );\r\n\r\n    event CasePurchased(\r\n        uint256 caseId,\r\n        CaseType caseType,\r\n        string caseTitle,\r\n        string caseDescribtion,\r\n        string caseLocation,\r\n        uint256 casePrice,\r\n        string caseDocs,\r\n        address payable owner,\r\n        bool isPurchased\r\n    );\r\n\r\n    function createCase(\r\n        CaseType _caseType,\r\n        string memory _caseTitle,\r\n        string memory _caseDescribtion,\r\n        string memory _caseLocation,\r\n        uint256 _casePrice,\r\n        string memory _caseDocs\r\n         ) public {\r\n        //requires valid name and price\r\n        require(bytes(_caseTitle).length > 0, \"Case Title is not valid!\");\r\n        require(_casePrice > 0, \"Case price is not valid!\");\r\n         //convert the price\r\n        /*uint256 adaptedPrice;\r\n       adaptedPrice = _casePrice*1e18; */\r\n        caseCount++;\r\n        //create the case\r\n        cases[caseCount] = Case(caseCount,_caseType,_caseTitle,_caseDescribtion, _caseLocation,_casePrice,_caseDocs,msg.sender,false);\r\n\r\n        //emit the event\r\n        emit CaseCreated(caseCount,_caseType,_caseTitle,_caseDescribtion, _caseLocation,_casePrice,\"Link locatio is hidden\",msg.sender,false);\r\n\r\n    }\r\n\r\n\r\n    function purchaseCase(uint256 _caseId)public payable{\r\n\r\n        //fetch the case\r\n        Case memory _case = cases[_caseId];\r\n\r\n        //fetch the owner\r\n        address payable _seller = _case.owner;\r\n\r\n        //ensure case has a valid id\r\n        require(_case.caseId>0 && _case.caseId<=caseCount, \"wrong case id\");\r\n\r\n         //require that it has enough Ether\r\n        require(msg.value>=_case.casePrice, \"not enough ether\");\r\n\r\n        //require that's not prudhced\r\n        require(!_case.isPurchased, \"case already purchsed\");\r\n\r\n        //require that buyer is not seller\r\n        require(_seller != msg.sender, \"can't buy your own cases\");\r\n\r\n        //now we ensured all, transfer ownership and mark as Purchased\r\n        _case.owner = msg.sender;\r\n        _case.isPurchased = true;\r\n\r\n        //update the list\r\n        cases[_caseId] = _case;\r\n\r\n        //pay the seller\r\n        _seller.transfer(msg.value);\r\n\r\n        //trigger purchase event\r\n        emit CasePurchased(caseCount,_case.caseType,_case.caseTitle,_case.caseDescribtion,\r\n        _case.caseLocation,_case.casePrice,\"link location is hidden\",msg.sender,true);\r\n\r\n    }\r\n\r\n    function getCaseDocs(uint256 _caseId)public view returns (string memory){\r\n        if(cases[_caseId].owner == msg.sender && cases[_caseId].isPurchased)\r\n\r\n        return cases[_caseId].caseDocs;\r\n\r\n        else return \"You don't own this case\";\r\n\r\n    }\r\n\r\n\r\n\r\n}\r\n",
  "sourcePath": "D:\\studies\\Blockchain\\whistled\\src\\contracts\\Marketplace.sol",
  "compiler": {
    "name": "solc",
    "version": "0.5.16+commit.9c3226ce.Emscripten.clang"
  },
  "schemaVersion": "3.0.23",
  "updatedAt": "2020-04-09T22:18:31.191Z",
  "networkType": "ethereum",
  "devdoc": {
    "methods": {}
  },
  "userdoc": {
    "methods": {}
  }
}