{
  "contractName": "Marketplace",
  "abi": [
    {
      "inputs": [],
      "payable": false,
      "stateMutability": "nonpayable",
      "type": "constructor"
    },
    {
      "anonymous": false,
      "inputs": [
        {
          "indexed": false,
          "internalType": "uint256",
          "name": "caseId",
          "type": "uint256"
        },
        {
          "indexed": false,
          "internalType": "enum Marketplace.CaseType",
          "name": "caseType",
          "type": "uint8"
        },
        {
          "indexed": false,
          "internalType": "string",
          "name": "caseTitle",
          "type": "string"
        },
        {
          "indexed": false,
          "internalType": "string",
          "name": "caseDescribtion",
          "type": "string"
        },
        {
          "indexed": false,
          "internalType": "string",
          "name": "caseLocation",
          "type": "string"
        },
        {
          "indexed": false,
          "internalType": "uint256",
          "name": "casePrice",
          "type": "uint256"
        },
        {
          "indexed": false,
          "internalType": "address payable",
          "name": "owner",
          "type": "address"
        },
        {
          "indexed": false,
          "internalType": "bool",
          "name": "isPurchased",
          "type": "bool"
        }
      ],
      "name": "CaseCreated",
      "type": "event"
    },
    {
      "anonymous": false,
      "inputs": [
        {
          "indexed": false,
          "internalType": "uint256",
          "name": "caseId",
          "type": "uint256"
        },
        {
          "indexed": false,
          "internalType": "enum Marketplace.CaseType",
          "name": "caseType",
          "type": "uint8"
        },
        {
          "indexed": false,
          "internalType": "string",
          "name": "caseTitle",
          "type": "string"
        },
        {
          "indexed": false,
          "internalType": "string",
          "name": "caseDescribtion",
          "type": "string"
        },
        {
          "indexed": false,
          "internalType": "string",
          "name": "caseLocation",
          "type": "string"
        },
        {
          "indexed": false,
          "internalType": "uint256",
          "name": "casePrice",
          "type": "uint256"
        },
        {
          "indexed": false,
          "internalType": "address payable",
          "name": "owner",
          "type": "address"
        },
        {
          "indexed": false,
          "internalType": "bool",
          "name": "isPurchased",
          "type": "bool"
        }
      ],
      "name": "CasePurchased",
      "type": "event"
    },
    {
      "constant": true,
      "inputs": [],
      "name": "caseCount",
      "outputs": [
        {
          "internalType": "uint256",
          "name": "",
          "type": "uint256"
        }
      ],
      "payable": false,
      "stateMutability": "view",
      "type": "function"
    },
    {
      "constant": true,
      "inputs": [
        {
          "internalType": "uint256",
          "name": "",
          "type": "uint256"
        }
      ],
      "name": "cases",
      "outputs": [
        {
          "internalType": "uint256",
          "name": "caseId",
          "type": "uint256"
        },
        {
          "internalType": "enum Marketplace.CaseType",
          "name": "caseType",
          "type": "uint8"
        },
        {
          "internalType": "string",
          "name": "caseTitle",
          "type": "string"
        },
        {
          "internalType": "string",
          "name": "caseDescribtion",
          "type": "string"
        },
        {
          "internalType": "string",
          "name": "caseLocation",
          "type": "string"
        },
        {
          "internalType": "uint256",
          "name": "casePrice",
          "type": "uint256"
        },
        {
          "internalType": "address payable",
          "name": "owner",
          "type": "address"
        },
        {
          "internalType": "bool",
          "name": "isPurchased",
          "type": "bool"
        }
      ],
      "payable": false,
      "stateMutability": "view",
      "type": "function"
    },
    {
      "constant": true,
      "inputs": [],
      "name": "contractName",
      "outputs": [
        {
          "internalType": "string",
          "name": "",
          "type": "string"
        }
      ],
      "payable": false,
      "stateMutability": "view",
      "type": "function"
    },
    {
      "constant": false,
      "inputs": [
        {
          "internalType": "string",
          "name": "_caseTitle",
          "type": "string"
        },
        {
          "internalType": "enum Marketplace.CaseType",
          "name": "_caseType",
          "type": "uint8"
        },
        {
          "internalType": "string",
          "name": "_caseDescribtion",
          "type": "string"
        },
        {
          "internalType": "string",
          "name": "_caseLocation",
          "type": "string"
        },
        {
          "internalType": "uint256",
          "name": "_casePrice",
          "type": "uint256"
        }
      ],
      "name": "createCase",
      "outputs": [],
      "payable": false,
      "stateMutability": "nonpayable",
      "type": "function"
    },
    {
      "constant": false,
      "inputs": [
        {
          "internalType": "uint256",
          "name": "_caseId",
          "type": "uint256"
        }
      ],
      "name": "purchaseCase",
      "outputs": [],
      "payable": true,
      "stateMutability": "payable",
      "type": "function"
    }
  ],
  "bytecode": "0x608060405260006001553480156200001657600080fd5b506040518060400160405280600f81526020017f57686973746c6564204d61726b6574000000000000000000000000000000000081525060009080519060200190620000649291906200006b565b506200011a565b828054600181600116156101000203166002900490600052602060002090601f016020900481019282601f10620000ae57805160ff1916838001178555620000df565b82800160010185558215620000df579182015b82811115620000de578251825591602001919060010190620000c1565b5b509050620000ee9190620000f2565b5090565b6200011791905b8082111562000113576000816000905550600101620000f9565b5090565b90565b61163e806200012a6000396000f3fe60806040526004361061004a5760003560e01c806375d0c0dc1461004f57806384d11c66146100df578063da2d7e95146102ec578063dbe07bb914610317578063f09790dd14610345575b600080fd5b34801561005b57600080fd5b50610064610532565b6040518080602001828103825283818151815260200191508051906020019080838360005b838110156100a4578082015181840152602081019050610089565b50505050905090810190601f1680156100d15780820380516001836020036101000a031916815260200191505b509250505060405180910390f35b3480156100eb57600080fd5b506102ea600480360360a081101561010257600080fd5b810190808035906020019064010000000081111561011f57600080fd5b82018360208201111561013157600080fd5b8035906020019184600183028401116401000000008311171561015357600080fd5b91908080601f016020809104026020016040519081016040528093929190818152602001838380828437600081840152601f19601f820116905080830192505050505050509192919290803560ff169060200190929190803590602001906401000000008111156101c357600080fd5b8201836020820111156101d557600080fd5b803590602001918460018302840111640100000000831117156101f757600080fd5b91908080601f016020809104026020016040519081016040528093929190818152602001838380828437600081840152601f19601f8201169050808301925050505050505091929192908035906020019064010000000081111561025a57600080fd5b82018360208201111561026c57600080fd5b8035906020019184600183028401116401000000008311171561028e57600080fd5b91908080601f016020809104026020016040519081016040528093929190818152602001838380828437600081840152601f19601f820116905080830192505050505050509192919290803590602001909291905050506105d0565b005b3480156102f857600080fd5b50610301610a28565b6040518082815260200191505060405180910390f35b6103436004803603602081101561032d57600080fd5b8101908080359060200190929190505050610a2e565b005b34801561035157600080fd5b5061037e6004803603602081101561036857600080fd5b81019080803590602001909291905050506112b2565b6040518089815260200188600281111561039457fe5b60ff1681526020018060200180602001806020018781526020018673ffffffffffffffffffffffffffffffffffffffff1673ffffffffffffffffffffffffffffffffffffffff1681526020018515151515815260200184810384528a818151815260200191508051906020019080838360005b83811015610422578082015181840152602081019050610407565b50505050905090810190601f16801561044f5780820380516001836020036101000a031916815260200191505b50848103835289818151815260200191508051906020019080838360005b8381101561048857808201518184015260208101905061046d565b50505050905090810190601f1680156104b55780820380516001836020036101000a031916815260200191505b50848103825288818151815260200191508051906020019080838360005b838110156104ee5780820151818401526020810190506104d3565b50505050905090810190601f16801561051b5780820380516001836020036101000a031916815260200191505b509b50505050505050505050505060405180910390f35b60008054600181600116156101000203166002900480601f0160208091040260200160405190810160405280929190818152602001828054600181600116156101000203166002900480156105c85780601f1061059d576101008083540402835291602001916105c8565b820191906000526020600020905b8154815290600101906020018083116105ab57829003601f168201915b505050505081565b6000855111610647576040517f08c379a00000000000000000000000000000000000000000000000000000000081526004018080602001828103825260188152602001807f43617365205469746c65206973206e6f742076616c696421000000000000000081525060200191505060405180910390fd5b600081116106bd576040517f08c379a00000000000000000000000000000000000000000000000000000000081526004018080602001828103825260188152602001807f43617365207072696365206973206e6f742076616c696421000000000000000081525060200191505060405180910390fd5b60016000815480929190600101919050555060405180610100016040528060015481526020018560028111156106ef57fe5b81526020018681526020018481526020018381526020018281526020013373ffffffffffffffffffffffffffffffffffffffff168152602001600015158152506002600060015481526020019081526020016000206000820151816000015560208201518160010160006101000a81548160ff0219169083600281111561077257fe5b021790555060408201518160020190805190602001906107939291906114fc565b5060608201518160030190805190602001906107b09291906114fc565b5060808201518160040190805190602001906107cd9291906114fc565b5060a0820151816005015560c08201518160060160006101000a81548173ffffffffffffffffffffffffffffffffffffffff021916908373ffffffffffffffffffffffffffffffffffffffff16021790555060e08201518160060160146101000a81548160ff0219169083151502179055509050507f8008e1f1f1ad6155b88adac0bd082ce5afa17e3263f6192a2be36de242339a2b60015485878686863360006040518089815260200188600281111561088457fe5b60ff1681526020018060200180602001806020018781526020018673ffffffffffffffffffffffffffffffffffffffff1673ffffffffffffffffffffffffffffffffffffffff1681526020018515151515815260200184810384528a818151815260200191508051906020019080838360005b838110156109125780820151818401526020810190506108f7565b50505050905090810190601f16801561093f5780820380516001836020036101000a031916815260200191505b50848103835289818151815260200191508051906020019080838360005b8381101561097857808201518184015260208101905061095d565b50505050905090810190601f1680156109a55780820380516001836020036101000a031916815260200191505b50848103825288818151815260200191508051906020019080838360005b838110156109de5780820151818401526020810190506109c3565b50505050905090810190601f168015610a0b5780820380516001836020036101000a031916815260200191505b509b50505050505050505050505060405180910390a15050505050565b60015481565b610a3661157c565b6002600083815260200190815260200160002060405180610100016040529081600082015481526020016001820160009054906101000a900460ff166002811115610a7d57fe5b6002811115610a8857fe5b8152602001600282018054600181600116156101000203166002900480601f016020809104026020016040519081016040528092919081815260200182805460018160011615610100020316600290048015610b255780601f10610afa57610100808354040283529160200191610b25565b820191906000526020600020905b815481529060010190602001808311610b0857829003601f168201915b50505050508152602001600382018054600181600116156101000203166002900480601f016020809104026020016040519081016040528092919081815260200182805460018160011615610100020316600290048015610bc75780601f10610b9c57610100808354040283529160200191610bc7565b820191906000526020600020905b815481529060010190602001808311610baa57829003601f168201915b50505050508152602001600482018054600181600116156101000203166002900480601f016020809104026020016040519081016040528092919081815260200182805460018160011615610100020316600290048015610c695780601f10610c3e57610100808354040283529160200191610c69565b820191906000526020600020905b815481529060010190602001808311610c4c57829003601f168201915b50505050508152602001600582015481526020016006820160009054906101000a900473ffffffffffffffffffffffffffffffffffffffff1673ffffffffffffffffffffffffffffffffffffffff1673ffffffffffffffffffffffffffffffffffffffff1681526020016006820160149054906101000a900460ff161515151581525050905060008160c00151905060008260000151118015610d125750600154826000015111155b610d84576040517f08c379a000000000000000000000000000000000000000000000000000000000815260040180806020018281038252600d8152602001807f77726f6e6720636173652069640000000000000000000000000000000000000081525060200191505060405180910390fd5b8160a00151341015610dfe576040517f08c379a00000000000000000000000000000000000000000000000000000000081526004018080602001828103825260108152602001807f6e6f7420656e6f7567682065746865720000000000000000000000000000000081525060200191505060405180910390fd5b8160e0015115610e76576040517f08c379a00000000000000000000000000000000000000000000000000000000081526004018080602001828103825260158152602001807f6361736520616c7265616479207075726368736564000000000000000000000081525060200191505060405180910390fd5b3373ffffffffffffffffffffffffffffffffffffffff168173ffffffffffffffffffffffffffffffffffffffff161415610f18576040517f08c379a00000000000000000000000000000000000000000000000000000000081526004018080602001828103825260188152602001807f63616e27742062757920796f7572206f776e206361736573000000000000000081525060200191505060405180910390fd5b338260c0019073ffffffffffffffffffffffffffffffffffffffff16908173ffffffffffffffffffffffffffffffffffffffff168152505060018260e001901515908115158152505081600260008581526020019081526020016000206000820151816000015560208201518160010160006101000a81548160ff02191690836002811115610fa357fe5b02179055506040820151816002019080519060200190610fc49291906114fc565b506060820151816003019080519060200190610fe19291906114fc565b506080820151816004019080519060200190610ffe9291906114fc565b5060a0820151816005015560c08201518160060160006101000a81548173ffffffffffffffffffffffffffffffffffffffff021916908373ffffffffffffffffffffffffffffffffffffffff16021790555060e08201518160060160146101000a81548160ff0219169083151502179055509050508073ffffffffffffffffffffffffffffffffffffffff166108fc349081150290604051600060405180830381858888f193505050501580156110b9573d6000803e3d6000fd5b507fe8dbc45a2a76508517a761af4cb5e5c00b9b0f0bf31ab0e56c6f6d7ecbad088e60015483602001518460400151856060015186608001518760a001513360016040518089815260200188600281111561111057fe5b60ff1681526020018060200180602001806020018781526020018673ffffffffffffffffffffffffffffffffffffffff1673ffffffffffffffffffffffffffffffffffffffff1681526020018515151515815260200184810384528a818151815260200191508051906020019080838360005b8381101561119e578082015181840152602081019050611183565b50505050905090810190601f1680156111cb5780820380516001836020036101000a031916815260200191505b50848103835289818151815260200191508051906020019080838360005b838110156112045780820151818401526020810190506111e9565b50505050905090810190601f1680156112315780820380516001836020036101000a031916815260200191505b50848103825288818151815260200191508051906020019080838360005b8381101561126a57808201518184015260208101905061124f565b50505050905090810190601f1680156112975780820380516001836020036101000a031916815260200191505b509b50505050505050505050505060405180910390a1505050565b60026020528060005260406000206000915090508060000154908060010160009054906101000a900460ff1690806002018054600181600116156101000203166002900480601f0160208091040260200160405190810160405280929190818152602001828054600181600116156101000203166002900480156113775780601f1061134c57610100808354040283529160200191611377565b820191906000526020600020905b81548152906001019060200180831161135a57829003601f168201915b505050505090806003018054600181600116156101000203166002900480601f0160208091040260200160405190810160405280929190818152602001828054600181600116156101000203166002900480156114155780601f106113ea57610100808354040283529160200191611415565b820191906000526020600020905b8154815290600101906020018083116113f857829003601f168201915b505050505090806004018054600181600116156101000203166002900480601f0160208091040260200160405190810160405280929190818152602001828054600181600116156101000203166002900480156114b35780601f10611488576101008083540402835291602001916114b3565b820191906000526020600020905b81548152906001019060200180831161149657829003601f168201915b5050505050908060050154908060060160009054906101000a900473ffffffffffffffffffffffffffffffffffffffff16908060060160149054906101000a900460ff16905088565b828054600181600116156101000203166002900490600052602060002090601f016020900481019282601f1061153d57805160ff191683800117855561156b565b8280016001018555821561156b579182015b8281111561156a57825182559160200191906001019061154f565b5b50905061157891906115e4565b5090565b604051806101000160405280600081526020016000600281111561159c57fe5b815260200160608152602001606081526020016060815260200160008152602001600073ffffffffffffffffffffffffffffffffffffffff1681526020016000151581525090565b61160691905b808211156116025760008160009055506001016115ea565b5090565b9056fea265627a7a723158208c048973cf60758184ac7a5ad982a84937803fe93176a9d37db48928d9ff480c64736f6c63430005100032",
  "source": "pragma solidity >=0.4.21 <0.6.2;\r\n\r\ncontract Marketplace {\r\n    //state var\r\n    string public contractName;\r\n\r\n    //use this not to point at empty mapping\r\n    uint256 public caseCount = 0;\r\n\r\n    //similar to linkedList\r\n    mapping(uint256 => Case) public cases;\r\n\r\n    //enum of case Types\r\n    enum CaseType {Bribery, Extortion, MoneyLaundry}\r\n\r\n    constructor() public {\r\n        contractName = \"Whistled Market\";\r\n    }\r\n\r\n    struct Case {\r\n        uint256 caseId;\r\n        CaseType caseType; //change this to enum\r\n        string caseTitle;\r\n        string caseDescribtion;\r\n        string caseLocation;\r\n        uint256 casePrice;\r\n        address payable owner;\r\n        bool isPurchased;\r\n    }\r\n\r\n    event CaseCreated(\r\n        uint256 caseId,\r\n        CaseType caseType,\r\n        string caseTitle,\r\n        string caseDescribtion,\r\n        string caseLocation,\r\n        uint256 casePrice,\r\n        address payable owner,\r\n        bool isPurchased\r\n    );\r\n\r\n    event CasePurchased(\r\n        uint256 caseId,\r\n        CaseType caseType,\r\n        string caseTitle,\r\n        string caseDescribtion,\r\n        string caseLocation,\r\n        uint256 casePrice,\r\n        address payable owner,\r\n        bool isPurchased\r\n    );\r\n\r\n    function createCase(string memory _caseTitle,\r\n        CaseType _caseType,\r\n        string memory _caseDescribtion,\r\n         string memory _caseLocation,\r\n         uint256 _casePrice\r\n         ) public {\r\n        //requires valid name and price\r\n        require(bytes(_caseTitle).length > 0, \"Case Title is not valid!\");\r\n        require(_casePrice > 0, \"Case price is not valid!\");\r\n\r\n        caseCount++;\r\n        //create the case\r\n        cases[caseCount] = Case(caseCount,_caseType,_caseTitle,_caseDescribtion, _caseLocation,_casePrice,msg.sender,false);\r\n\r\n        //emit the event\r\n        emit CaseCreated(caseCount,_caseType,_caseTitle,_caseDescribtion, _caseLocation,_casePrice,msg.sender,false);\r\n\r\n    }\r\n\r\n\r\n    function purchaseCase(uint256 _caseId)public payable{\r\n\r\n        //fetch the case\r\n        Case memory _case = cases[_caseId];\r\n\r\n        //fetch the owner\r\n        address payable _seller = _case.owner;\r\n\r\n        //ensure case has a valid id\r\n        require(_case.caseId>0 && _case.caseId<=caseCount, \"wrong case id\");\r\n\r\n         //require that it has enough Ether\r\n        require(msg.value>=_case.casePrice, \"not enough ether\");\r\n\r\n        //require that's not prudhced\r\n        require(!_case.isPurchased, \"case already purchsed\");\r\n\r\n        //require that buyer is not seller\r\n        require(_seller != msg.sender, \"can't buy your own cases\");\r\n\r\n        //now we ensured all, transfer ownership and mark as Purchased\r\n        _case.owner = msg.sender;\r\n        _case.isPurchased = true;\r\n\r\n        //update the list\r\n        cases[_caseId] = _case;\r\n\r\n        //pay the seller\r\n        _seller.transfer(msg.value);\r\n\r\n        //trigger purchase event\r\n        emit CasePurchased(caseCount,_case.caseType,_case.caseTitle,_case.caseDescribtion,_case.caseLocation,_case.casePrice,msg.sender,true);\r\n\r\n    }\r\n\r\n\r\n\r\n}\r\n",
  "sourcePath": "E:\\studies\\Blockchain\\whistled\\client\\src\\contracts\\Marketplace.sol",
  "compiler": {
    "name": "solc",
    "version": "0.5.16+commit.9c3226ce.Emscripten.clang"
  },
  "schemaVersion": "3.0.23",
  "updatedAt": "2020-03-22T15:55:07.731Z",
  "devdoc": {
    "methods": {}
  },
  "userdoc": {
    "methods": {}
  }
}